{
  "contractName": "NgoFundManagement",
  "abi": [
    {
      "inputs": [],
      "stateMutability": "nonpayable",
      "type": "constructor"
    },
    {
      "inputs": [],
      "name": "contribute",
      "outputs": [],
      "stateMutability": "payable",
      "type": "function",
      "payable": true
    },
    {
      "inputs": [
        {
          "internalType": "string",
          "name": "_description",
          "type": "string"
        },
        {
          "internalType": "uint256",
          "name": "_amount",
          "type": "uint256"
        },
        {
          "internalType": "address payable",
          "name": "_recipient",
          "type": "address"
        }
      ],
      "name": "requestPayment",
      "outputs": [],
      "stateMutability": "nonpayable",
      "type": "function"
    },
    {
      "inputs": [
        {
          "internalType": "uint256",
          "name": "index",
          "type": "uint256"
        }
      ],
      "name": "validatePaymentRequest",
      "outputs": [],
      "stateMutability": "nonpayable",
      "type": "function"
    },
    {
      "inputs": [
        {
          "internalType": "uint256",
          "name": "index",
          "type": "uint256"
        }
      ],
      "name": "approvePaymentRequest",
      "outputs": [],
      "stateMutability": "nonpayable",
      "type": "function"
    },
    {
      "inputs": [],
      "name": "paymentRequestLength",
      "outputs": [
        {
          "internalType": "uint256",
          "name": "",
          "type": "uint256"
        }
      ],
      "stateMutability": "view",
      "type": "function",
      "constant": true
    },
    {
      "inputs": [
        {
          "internalType": "uint256",
          "name": "index",
          "type": "uint256"
        }
      ],
      "name": "viewPaymentRequest",
      "outputs": [
        {
          "internalType": "string",
          "name": "des",
          "type": "string"
        },
        {
          "internalType": "uint256",
          "name": "amt",
          "type": "uint256"
        },
        {
          "internalType": "address",
          "name": "rec",
          "type": "address"
        },
        {
          "internalType": "uint8",
          "name": "valid",
          "type": "uint8"
        },
        {
          "internalType": "uint256",
          "name": "appCnt",
          "type": "uint256"
        }
      ],
      "stateMutability": "view",
      "type": "function",
      "constant": true
    },
    {
      "inputs": [
        {
          "internalType": "uint256",
          "name": "index",
          "type": "uint256"
        }
      ],
      "name": "completePaymentRequest",
      "outputs": [],
      "stateMutability": "nonpayable",
      "type": "function"
    },
    {
      "inputs": [],
      "name": "trustOwner",
      "outputs": [],
      "stateMutability": "nonpayable",
      "type": "function"
    },
    {
      "inputs": [],
      "name": "revokeTrust",
      "outputs": [],
      "stateMutability": "nonpayable",
      "type": "function"
    }
  ],
  "bytecode": "0x608060405234801561001057600080fd5b50336000806101000a81548173ffffffffffffffffffffffffffffffffffffffff021916908373ffffffffffffffffffffffffffffffffffffffff1602179055506001600460008060009054906101000a900473ffffffffffffffffffffffffffffffffffffffff1673ffffffffffffffffffffffffffffffffffffffff1673ffffffffffffffffffffffffffffffffffffffff16815260200190815260200160002060006101000a81548160ff021916908315150217905550611848806100d96000396000f3fe6080604052600436106100865760003560e01c8063c96a15b211610059578063c96a15b214610137578063d73867b214610160578063d7bb99ba14610177578063da82300b14610181578063dec3b8b7146101aa57610086565b8063392183aa1461008b57806342561580146100b45780636f44235a146100df5780639ae3ea5614610120575b600080fd5b34801561009757600080fd5b506100b260048036038101906100ad9190610fca565b6101d3565b005b3480156100c057600080fd5b506100c961026b565b6040516100d69190611048565b60405180910390f35b3480156100eb57600080fd5b5061010660048036038101906101019190611063565b610275565b604051610117959493929190611155565b60405180910390f35b34801561012c57600080fd5b506101356103bb565b005b34801561014357600080fd5b5061015e60048036038101906101599190611063565b61050f565b005b34801561016c57600080fd5b50610175610772565b005b61017f61091f565b005b34801561018d57600080fd5b506101a860048036038101906101a39190611063565b6109e9565b005b3480156101b657600080fd5b506101d160048036038101906101cc9190611063565b610b07565b005b600060086000600760008154809291906101ec906111de565b919050558152602001908152602001600020905083816000019080519060200190610218929190610d39565b50828160010181905550818160020160006101000a81548173ffffffffffffffffffffffffffffffffffffffff021916908373ffffffffffffffffffffffffffffffffffffffff16021790555050505050565b6000600754905090565b60606000806000806008600087815260200190815260200160002060000160086000888152602001908152602001600020600101546008600089815260200190815260200160002060020160009054906101000a900473ffffffffffffffffffffffffffffffffffffffff16600860008a815260200190815260200160002060020160149054906101000a900460ff16600860008b81526020019081526020016000206004015484805461032890611256565b80601f016020809104026020016040519081016040528092919081815260200182805461035490611256565b80156103a15780601f10610376576101008083540402835291602001916103a1565b820191906000526020600020905b81548152906001019060200180831161038457829003601f168201915b505050505094509450945094509450945091939590929450565b600260003373ffffffffffffffffffffffffffffffffffffffff1673ffffffffffffffffffffffffffffffffffffffff16815260200190815260200160002060009054906101000a900460ff16610447576040517f08c379a000000000000000000000000000000000000000000000000000000000815260040161043e906112d4565b60405180910390fd5b600360003373ffffffffffffffffffffffffffffffffffffffff1673ffffffffffffffffffffffffffffffffffffffff16815260200190815260200160002060009054906101000a900460ff1661049d57600080fd5b6001600460003373ffffffffffffffffffffffffffffffffffffffff1673ffffffffffffffffffffffffffffffffffffffff16815260200190815260200160002060006101000a81548160ff02191690831515021790555060016000815480929190610508906112f4565b9190505550565b60006008600083815260200190815260200160002090506005600083815260200190815260200160002060009054906101000a900460ff1615610587576040517f08c379a000000000000000000000000000000000000000000000000000000000815260040161057e90611390565b60405180910390fd5b60008160020160149054906101000a900460ff1660ff1614156105df576040517f08c379a00000000000000000000000000000000000000000000000000000000081526004016105d690611422565b60405180910390fd5b8060030160003373ffffffffffffffffffffffffffffffffffffffff1673ffffffffffffffffffffffffffffffffffffffff16815260200190815260200160002060009054906101000a900460ff161561066e576040517f08c379a00000000000000000000000000000000000000000000000000000000081526004016106659061148e565b60405180910390fd5b600460003373ffffffffffffffffffffffffffffffffffffffff1673ffffffffffffffffffffffffffffffffffffffff16815260200190815260200160002060009054906101000a900460ff166106fa576040517f08c379a00000000000000000000000000000000000000000000000000000000081526004016106f190611520565b60405180910390fd5b80600401600081548092919061070f906111de565b919050555060018160030160003373ffffffffffffffffffffffffffffffffffffffff1673ffffffffffffffffffffffffffffffffffffffff16815260200190815260200160002060006101000a81548160ff0219169083151502179055505050565b600260003373ffffffffffffffffffffffffffffffffffffffff1673ffffffffffffffffffffffffffffffffffffffff16815260200190815260200160002060009054906101000a900460ff166107fe576040517f08c379a00000000000000000000000000000000000000000000000000000000081526004016107f5906112d4565b60405180910390fd5b600360003373ffffffffffffffffffffffffffffffffffffffff1673ffffffffffffffffffffffffffffffffffffffff16815260200190815260200160002060009054906101000a900460ff161561085557600080fd5b6001600360003373ffffffffffffffffffffffffffffffffffffffff1673ffffffffffffffffffffffffffffffffffffffff16815260200190815260200160002060006101000a81548160ff0219169083151502179055506000600460003373ffffffffffffffffffffffffffffffffffffffff1673ffffffffffffffffffffffffffffffffffffffff16815260200190815260200160002060006101000a81548160ff02191690831515021790555060016000815480929190610918906111de565b9190505550565b6001600260003373ffffffffffffffffffffffffffffffffffffffff1673ffffffffffffffffffffffffffffffffffffffff16815260200190815260200160002060006101000a81548160ff0219169083151502179055506001600460003373ffffffffffffffffffffffffffffffffffffffff1673ffffffffffffffffffffffffffffffffffffffff16815260200190815260200160002060006101000a81548160ff021916908315150217905550600660008154809291906109e2906111de565b9190505550565b3373ffffffffffffffffffffffffffffffffffffffff1660008054906101000a900473ffffffffffffffffffffffffffffffffffffffff1673ffffffffffffffffffffffffffffffffffffffff1614610a77576040517f08c379a0000000000000000000000000000000000000000000000000000000008152600401610a6e9061158c565b60405180910390fd5b600060086000838152602001908152602001600020905060008160020160149054906101000a900460ff1660ff1614610ae5576040517f08c379a0000000000000000000000000000000000000000000000000000000008152600401610adc906115f8565b60405180910390fd5b60018160020160146101000a81548160ff021916908360ff1602179055505050565b3373ffffffffffffffffffffffffffffffffffffffff1660008054906101000a900473ffffffffffffffffffffffffffffffffffffffff1673ffffffffffffffffffffffffffffffffffffffff1614610b95576040517f08c379a0000000000000000000000000000000000000000000000000000000008152600401610b8c9061158c565b60405180910390fd5b6000600860008381526020019081526020016000209050600154816004016000828254610bc29190611618565b925050819055506002600654610bd8919061169d565b81600401541015610c1e576040517f08c379a0000000000000000000000000000000000000000000000000000000008152600401610c159061171a565b60405180910390fd5b8060010154471015610c65576040517f08c379a0000000000000000000000000000000000000000000000000000000008152600401610c5c90611786565b60405180910390fd5b6005600083815260200190815260200160002060009054906101000a900460ff1615610cc6576040517f08c379a0000000000000000000000000000000000000000000000000000000008152600401610cbd906117f2565b60405180910390fd5b8060020160009054906101000a900473ffffffffffffffffffffffffffffffffffffffff1673ffffffffffffffffffffffffffffffffffffffff166108fc82600101549081150290604051600060405180830381858888f19350505050158015610d34573d6000803e3d6000fd5b505050565b828054610d4590611256565b90600052602060002090601f016020900481019282610d675760008555610dae565b82601f10610d8057805160ff1916838001178555610dae565b82800160010185558215610dae579182015b82811115610dad578251825591602001919060010190610d92565b5b509050610dbb9190610dbf565b5090565b5b80821115610dd8576000816000905550600101610dc0565b5090565b6000604051905090565b600080fd5b600080fd5b600080fd5b600080fd5b6000601f19601f8301169050919050565b7f4e487b7100000000000000000000000000000000000000000000000000000000600052604160045260246000fd5b610e4382610dfa565b810181811067ffffffffffffffff82111715610e6257610e61610e0b565b5b80604052505050565b6000610e75610ddc565b9050610e818282610e3a565b919050565b600067ffffffffffffffff821115610ea157610ea0610e0b565b5b610eaa82610dfa565b9050602081019050919050565b82818337600083830152505050565b6000610ed9610ed484610e86565b610e6b565b905082815260208101848484011115610ef557610ef4610df5565b5b610f00848285610eb7565b509392505050565b600082601f830112610f1d57610f1c610df0565b5b8135610f2d848260208601610ec6565b91505092915050565b6000819050919050565b610f4981610f36565b8114610f5457600080fd5b50565b600081359050610f6681610f40565b92915050565b600073ffffffffffffffffffffffffffffffffffffffff82169050919050565b6000610f9782610f6c565b9050919050565b610fa781610f8c565b8114610fb257600080fd5b50565b600081359050610fc481610f9e565b92915050565b600080600060608486031215610fe357610fe2610de6565b5b600084013567ffffffffffffffff81111561100157611000610deb565b5b61100d86828701610f08565b935050602061101e86828701610f57565b925050604061102f86828701610fb5565b9150509250925092565b61104281610f36565b82525050565b600060208201905061105d6000830184611039565b92915050565b60006020828403121561107957611078610de6565b5b600061108784828501610f57565b91505092915050565b600081519050919050565b600082825260208201905092915050565b60005b838110156110ca5780820151818401526020810190506110af565b838111156110d9576000848401525b50505050565b60006110ea82611090565b6110f4818561109b565b93506111048185602086016110ac565b61110d81610dfa565b840191505092915050565b600061112382610f6c565b9050919050565b61113381611118565b82525050565b600060ff82169050919050565b61114f81611139565b82525050565b600060a082019050818103600083015261116f81886110df565b905061117e6020830187611039565b61118b604083018661112a565b6111986060830185611146565b6111a56080830184611039565b9695505050505050565b7f4e487b7100000000000000000000000000000000000000000000000000000000600052601160045260246000fd5b60006111e982610f36565b91507fffffffffffffffffffffffffffffffffffffffffffffffffffffffffffffffff82141561121c5761121b6111af565b5b600182019050919050565b7f4e487b7100000000000000000000000000000000000000000000000000000000600052602260045260246000fd5b6000600282049050600182168061126e57607f821691505b6020821081141561128257611281611227565b5b50919050565b7f4f6e6c7920636f6e7472696275746f727320616c6c6f77656400000000000000600082015250565b60006112be60198361109b565b91506112c982611288565b602082019050919050565b600060208201905081810360008301526112ed816112b1565b9050919050565b60006112ff82610f36565b91506000821415611313576113126111af565b5b600182039050919050565b7f5468697320726571756573742068617320616c7265616479206265656e20707260008201527f6f63657373656400000000000000000000000000000000000000000000000000602082015250565b600061137a60278361109b565b91506113858261131e565b604082019050919050565b600060208201905081810360008301526113a98161136d565b9050919050565b7f5061796d656e74206e6565647320746f2062652076616c69646174656420627960008201527f206f776e65720000000000000000000000000000000000000000000000000000602082015250565b600061140c60268361109b565b9150611417826113b0565b604082019050919050565b6000602082019050818103600083015261143b816113ff565b9050919050565b7f596f7520616c726561647920617070726f766564000000000000000000000000600082015250565b600061147860148361109b565b915061148382611442565b602082019050919050565b600060208201905081810360008301526114a78161146b565b9050919050565b7f596f75206861766520676976656e20796f757220617070726f76616c20746f2060008201527f746865206f776e65720000000000000000000000000000000000000000000000602082015250565b600061150a60298361109b565b9150611515826114ae565b604082019050919050565b60006020820190508181036000830152611539816114fd565b9050919050565b7f4f6e6c79206f776e657220616c6c6f7765640000000000000000000000000000600082015250565b600061157660128361109b565b915061158182611540565b602082019050919050565b600060208201905081810360008301526115a581611569565b9050919050565b7f416c72656164792076616c696461746564000000000000000000000000000000600082015250565b60006115e260118361109b565b91506115ed826115ac565b602082019050919050565b60006020820190508181036000830152611611816115d5565b9050919050565b600061162382610f36565b915061162e83610f36565b9250827fffffffffffffffffffffffffffffffffffffffffffffffffffffffffffffffff03821115611663576116626111af565b5b828201905092915050565b7f4e487b7100000000000000000000000000000000000000000000000000000000600052601260045260246000fd5b60006116a882610f36565b91506116b383610f36565b9250826116c3576116c261166e565b5b828204905092915050565b7f4e6f7420656e6f75676820617070726f76616c00000000000000000000000000600082015250565b600061170460138361109b565b915061170f826116ce565b602082019050919050565b60006020820190508181036000830152611733816116f7565b9050919050565b7f4e6f7420656e6f7567682062616c616e63650000000000000000000000000000600082015250565b600061177060128361109b565b915061177b8261173a565b602082019050919050565b6000602082019050818103600083015261179f81611763565b9050919050565b7f7061796d656e745265717565737420616c72656164792070726f636573736564600082015250565b60006117dc60208361109b565b91506117e7826117a6565b602082019050919050565b6000602082019050818103600083015261180b816117cf565b905091905056fea2646970667358221220686f9b760756dab58de942d8449182e263d4d334e9c1daa6cbb6fb9c9facfc9c64736f6c63430008090033",
  "immutableReferences": {},
  "source": "// SPDX-License-Identifier: MIT\npragma solidity >=0.6.0 <0.9.0;\n\ncontract NgoFundManagement {\n    \n    address owner;\n    uint ownerApprovalValue;\n    mapping(address => bool) contributor;\n    mapping(address => bool) trust;\n    mapping(address => bool) canApprove;\n    mapping(uint => bool) completed;\n    \n    //can validate PaymentRequest with mapping\n    uint contributorCount;\n    // PaymentRequest[] private paymentRequests;\n    uint numPaymentRequest;\n    mapping (uint => PaymentRequest) paymentRequests;\n    \n    struct PaymentRequest {\n        string description;\n        uint amount;\n        address payable recipient;\n        // bool validated;\n        uint8 validated;\n        mapping(address => bool) approval;\n        uint approvalCount;\n    }\n    \n    modifier onlyOwner() {\n        require(owner == msg.sender, \"Only owner allowed\");\n        _;\n    }\n    \n    modifier onlyContributor() {\n        require(contributor[msg.sender], \"Only contributors allowed\");\n        _;\n    }\n    \n    //error handling = require, assert, revert\n    constructor() {\n        owner = msg.sender;\n        canApprove[owner] = true;\n    }\n    \n    function contribute() public payable {\n        contributor[msg.sender] = true;\n        canApprove[msg.sender] = true;\n        contributorCount++;\n    }\n    \n    function requestPayment(string memory _description, uint _amount, address payable _recipient) public {\n        // PaymentRequest memory newPaymentRequest = PaymentRequest({\n        //     description: _description,\n        //     amount: _amount,\n        //     recipient: _recipient,\n        //     validated: 0,\n        //     approvalCount: 0\n        // });\n        // paymentRequests.push(newPaymentRequest);\n        PaymentRequest storage newPR = paymentRequests[numPaymentRequest++];\n        newPR.description = _description;\n        newPR.amount = _amount;\n        newPR.recipient = _recipient;   \n    }\n    \n    function validatePaymentRequest(uint index) public onlyOwner {\n        PaymentRequest storage paymentRequest = paymentRequests[index];\n        require(paymentRequest.validated == 0, \"Already validated\");\n        paymentRequest.validated = 1;\n    }\n    \n    function approvePaymentRequest(uint index) public {\n        PaymentRequest storage paymentRequest = paymentRequests[index];\n        \n        require(!completed[index], \"This request has already been processed\");\n        require(!(paymentRequest.validated == 0), \"Payment needs to be validated by owner\");\n        require(!paymentRequest.approval[msg.sender],\"You already approved\");\n        require(canApprove[msg.sender],\"You have given your approval to the owner\");\n        \n        //can move this to completePaymentRequest\n        \n        //vulnerablity : contributor trustOwner() ->Owner approvePaymentRequest()-> contributor revokeTrust() -> contributor approvePaymentRequest() \n        //this contributor can vote twice\n        \n        //can move this owner approval to the completePaymentRequest\n        paymentRequest.approvalCount++;\n        paymentRequest.approval[msg.sender] = true;\n    }\n\n    function paymentRequestLength() public view returns(uint) {\n        return(numPaymentRequest);\n    }\n    \n    function viewPaymentRequest(uint index) public view returns (string memory des, uint amt, address rec, uint8 valid, uint appCnt) {\n        return (paymentRequests[index].description, paymentRequests[index].amount, paymentRequests[index].recipient, paymentRequests[index].validated, paymentRequests[index].approvalCount);\n    }\n    \n    function completePaymentRequest(uint index) public onlyOwner {\n        PaymentRequest storage paymentRequest = paymentRequests[index];\n        paymentRequest.approvalCount += ownerApprovalValue;\n        \n        require(paymentRequest.approvalCount >= (contributorCount / 2), \"Not enough approval\");\n        require(address(this).balance >= paymentRequest.amount, \"Not enough balance\");\n        require(!completed[index], \"paymentRequest already processed\");\n        \n        paymentRequest.recipient.transfer(paymentRequest.amount);\n    }\n    \n    function trustOwner() public onlyContributor {\n        require(!trust[msg.sender]);\n        trust[msg.sender] = true;\n        canApprove[msg.sender] = false;\n        ownerApprovalValue++;\n    }\n    \n    function revokeTrust() public onlyContributor {\n        require(trust[msg.sender]);\n        canApprove[msg.sender] = true;\n        ownerApprovalValue--;\n    }\n    \n}",
  "sourcePath": "D:\\Shashank.summer\\DApp_NGO\\contracts\\NgoFundManagement.sol",
  "compiler": {
    "name": "solc",
    "version": "0.8.9+commit.e5eed63a.Emscripten.clang"
  },
  "schemaVersion": "3.4.3",
  "updatedAt": "2021-11-10T08:43:10.877Z",
  "networkType": "ethereum",
  "devdoc": {
    "kind": "dev",
    "methods": {},
    "version": 1
  },
  "userdoc": {
    "kind": "user",
    "methods": {},
    "version": 1
  }
}